:100000000C9494000C94A6000C94A6000C94A600EA
:100010000C94A6000C94A6000C94A6000C94A600C8
:100020000C94A6000C94A6000C94A6000C94A600B8
:100030000C94A6000C94A6000C94A6000C94A600A8
:100040000C947F010C94A6000C94A6000C94A600BE
:100050000C94A6000C94A6000C94A6000C94A60088
:100060000C94A6000C94A6000000000025002800B7
:100070002B00040404040404040402020202020229
:10008000030303030303010204081020408001025C
:1000900004081020010204081020000000080002DB
:1000A0000100000304070000000000000000181118
:1000B00080961180FFB103010101B203010101B378
:1000C00006010101010101B40107C003A20284C1BC
:1000D00001C5C2020A00C3028A2AC4028AEEC5010F
:1000E0000E20003601C83A01052A04000100A02BA9
:1000F0000400020081E010021C07123732292D296A
:10010000252B3900010310E110031D07062E2C29B1
:100110002D2E2E373F0000021013800A29806436EE
:1001200001C03601A02C000011241FBECFEFD8E083
:10013000DEBFCDBF21E0A0E0B1E001C01D92A9303B
:10014000B207E1F70E94C9010C940B030C94000064
:1001500090E0FC01E656FF4F2491FC01EA57FF4F67
:100160003491FC01EE58FF4FE491EE23C9F02223B5
:1001700039F0233001F1A8F4213019F1223029F1AE
:10018000F0E0EE0FFF1FE859FF4FA591B4918FB734
:10019000F894EC91611126C030953E233C938FBFBB
:1001A00008952730A9F02830C9F0243049F780910C
:1001B00080008F7D03C0809180008F7780938000C6
:1001C000DFCF84B58F7784BDDBCF84B58F7DFBCF48
:1001D0008091B0008F778093B000D2CF8091B00033
:1001E0008F7DF9CF3E2BDACF3FB7F8948091050190
:1001F00090910601A0910701B091080126B5A89B36
:1002000005C02F3F19F00196A11DB11D3FBFBA2FA8
:10021000A92F982F8827BC01CD01620F711D811D68
:10022000911D42E0660F771F881F991F4A95D1F7ED
:1002300008958F929F92AF92BF92CF92DF92EF92EA
:10024000FF926B017C010E94F4004B015C01C11420
:10025000D104E104F104B9F00E94F40068197909AD
:100260008A099B09683E73408105910580F321E06E
:10027000C21AD108E108F10888EE880E83E0981EC2
:10028000A11CB11CE4CFFF90EF90DF90CF90BF9006
:10029000AF909F908F9008959BB120E087FD5B9A6F
:1002A00087FF5B985A9A5A9886FD5B9A86FF5B98FF
:1002B0005A9A5A9885FD5B9A85FF5B985A9A5A9884
:1002C00084FD5B9A84FF5B985A9A5A9883FD5B9AE7
:1002D00083FF5B985A9A5A9882FD5B9A82FF5B98DB
:1002E0005A9A5A9881FD5B9A81FF5B985A9A5A985C
:1002F00080FD5B9A80FF5B985A9A5A9808951F92E6
:100300000F920FB60F9211242F933F938F939F93C9
:10031000AF93BF938091010190910201A0910301DD
:10032000B09104013091000123E0230F2D3758F5DF
:100330000196A11DB11D20930001809301019093AE
:100340000201A0930301B0930401809105019091F3
:100350000601A0910701B09108010196A11DB11DF0
:100360008093050190930601A0930701B0930801C3
:10037000BF91AF919F918F913F912F910F900FBEA1
:100380000F901F90189526E8230F0296A11DB11D0E
:10039000D2CF789484B5826084BD84B5816084BDF9
:1003A00085B5826085BD85B5816085BD80916E0013
:1003B000816080936E001092810080918100826044
:1003C0008093810080918100816080938100809181
:1003D00080008160809380008091B1008460809370
:1003E000B1008091B00081608093B00080917A006C
:1003F000846080937A0080917A00826080937A0092
:1004000080917A00816080937A0080917A00806880
:1004100080937A001092C1000FEF0AB902E90BB97C
:1004200064E670E080E090E00E94190102E80BB9F8
:1004300064E670E080E090E00E94190102ED0BB9E3
:1004400068EC70E080E090E00E941901EEEAF0E0D4
:10045000E491CE2FD0E010E000E0CC24C394D12C66
:100460000C171D0708F051C0F601E255FF4FB4907C
:10047000460182E0880E911CF601E155FF4F749011
:10048000872D8F77E82EF12C60E086E00E94A8008F
:1004900060E085E00E94A8008B2D0E944C0161E085
:1004A00085E00E94A800B12CA12CC60180559F4F69
:1004B0006C01AE14BF0450F4F601EA0DFB1D8491EB
:1004C0000E944C019FEFA91AB90AF3CF61E086E0C0
:1004D0000E94A8006401CE0CDF1C77FE13C07601D9
:1004E0008FEFE81AF80AF601E255FF4F649170E0C9
:1004F0006F3F710511F464EF71E090E080E00E94BD
:10050000190167010F5F1F4FABCF60E086E00E94CB
:10051000A800F89440E050E560E038EF8BB1962FEA
:10052000232F27FD5B9A27FF5B985A9A5A9826FD3E
:100530005B9A26FF5B985A9A5A9825FD5B9A25FF8D
:100540005B985A9A5A9824FD5B9A24FF5B985A9AB2
:100550005A9823FD5B9A23FF5B985A9A5A9822FD7A
:100560005B9A22FF5B985A9A5A9821FD5B9A21FF69
:100570005B985A9A5A9820FD5B9A20FF5B985A9A8A
:100580005A9897FD5B9A97FF5B985A9A5A9896FDEE
:100590005B9A96FF5B985A9A5A9895FD5B9A95FFDD
:1005A0005B985A9A5A9894FD5B9A94FF5B985A9A72
:1005B0005A9893FD5B9A93FF5B985A9A5A9892FDCA
:1005C0005B9A92FF5B985A9A5A9891FD5B9A91FFB9
:1005D0005B985A9A5A9890FD5B9A90FF5B985A9A4A
:1005E0005A984150510909F099CF7894C0E0D0E071
:1005F0005F9A68EE73E080E090E00E9419015F98D6
:1006000068EE73E080E090E00E941901209781F38A
:0A0610000E940000EDCFF894FFCF28
:00000001FF
