:100000000C9497000C94BF000C94BF000C94BF009C
:100010000C94BF000C94BF000C94BF000C94BF0064
:100020000C94BF000C94BF000C94BF000C94BF0054
:100030000C94BF000C94BF000C94BF000C94BF0044
:100040000C9497030C94BF000C9465030C943F032D
:100050000C94BF000C94BF000C94BF000C94BF0024
:100060000C94BF000C94BF000000000800020100C7
:10007000000304070000000000000000C0A00060B2
:1000800004E010021C07123732292D29252B3900D4
:10009000010310E110031D07062E2C292D2E2E37EB
:1000A0003F0000021013800A298064022A04000124
:1000B00000A02B04000200810F1180FFB103010199
:1000C00001B203010101B306010101010101B40103
:1000D00007C003A20284C101C5C2020A00C3028A8A
:1000E0002AC4028AEEC5010E20003601C83A010575
:1000F00000000000250028002B0000000000240064
:1001000027002A0004040404040404040202020276
:1001100002020303030303030102040810204080CA
:10012000010204081020010204081020D90511243E
:100130001FBECFEFD8E0DEBFCDBF11E0A0E0B1E041
:10014000ECECF1E102C005900D92A834B107D9F7AB
:1001500021E0A8E4B1E001C01D92AE3EB207E1F794
:1001600010E0C7E9D0E004C02197FE010E94060616
:10017000C639D107C9F70E94E1030C94E4080C9436
:10018000000090E0FC01E85EFE4F24918C5F9E4FE2
:10019000FC018491882399F090E0880F991FFC015D
:1001A000E650FF4FA591B491FC01E051FF4F8591BE
:1001B00094918FB7F894EC91E22BEC938FBF089554
:1001C000AF92BF92CF92DF92EF92FF920F931F9365
:1001D000CF93DF936C017B018B01040F151FEB01A3
:1001E0005E01AE18BF08C017D10759F06991D6015A
:1001F000ED91FC910190F081E02DC6010995892BCC
:1002000079F7C501DF91CF911F910F91FF90EF908A
:10021000DF90CF90BF90AF900895FC01538D448D37
:10022000252F30E0842F90E0821B930B541710F0A1
:10023000CF96089501970895FC01918D828D9817AE
:1002400061F0A28DAE0FBF2FB11D5D968C91928D86
:100250009F5F9F73928F90E008958FEF9FEF0895B7
:10026000FC01918D828D981731F0828DE80FF11D80
:10027000858D90E008958FEF9FEF0895FC01918D9B
:10028000228D892F90E0805C9F4F821B91098F7394
:100290009927089581E591E00E943E0121E0892B94
:1002A00009F420E0822F089580E090E0892B29F066
:1002B0000E944A0181110C9400000895FC01A48D54
:1002C000A80FB92FB11DA35ABF4F2C91848D90E078
:1002D00001968F739927848FA689B7892C93A0895B
:1002E000B1898C91837080648C93938D848D9813E5
:1002F00006C00288F389E02D80818F7D8083089578
:10030000EF92FF920F931F93CF93DF93EC0181E065
:10031000888F9B8D8C8D98131AC0E889F98980810C
:1003200085FF15C09FB7F894EE89FF896083E8893F
:10033000F98980818370806480839FBF81E090E031
:10034000DF91CF911F910F91FF90EF900895F62EBE
:100350000B8D10E00F5F1F4F0F731127E02E8C8D58
:100360008E110CC00FB607FCFACFE889F98980819D
:1003700085FFF5CFCE010E945E01F1CFEB8DEC0F32
:10038000FD2FF11DE35AFF4FF0829FB7F8940B8FBA
:10039000EA89FB8980818062CFCFCF93DF93EC0124
:1003A000888D8823B9F0AA89BB89E889F9898C915D
:1003B00085FD03C0808186FD0DC00FB607FCF7CF19
:1003C0008C9185FFF2CF808185FFEDCFCE010E9419
:1003D0005E01E9CFDF91CF91089590E0FC01E859EB
:1003E000FF4F2491FC01E85EFE4F3491FC01EC5F6D
:1003F000FE4FE491EE23C9F0222339F0233001F1BE
:10040000A8F4213019F1223029F1F0E0EE0FFF1F9E
:10041000E051FF4FA591B4918FB7F894EC91611121
:1004200026C030953E233C938FBF08952730A9F016
:100430002830C9F0243049F7809180008F7D03C0B7
:10044000809180008F7780938000DFCF84B58F7795
:1004500084BDDBCF84B58F7DFBCF8091B0008F77DB
:100460008093B000D2CF8091B0008F7DF9CF3E2B2A
:10047000DACF0F931F93CF93DF938C01C8E0D0E0C6
:10048000B801660F672F661F770B7195617083E067
:100490000E94ED0161E082E00E94ED0160E082E0F7
:1004A0000E94ED01000F111F219751F7DF91CF91AD
:1004B0001F910F9108953FB7F89480914D0190914D
:1004C0004E01A0914F01B091500126B5A89B05C0E7
:1004D0002F3F19F00196A11DB11D3FBFBA2FA92FC3
:1004E000982F8827BC01CD01620F711D811D911DC0
:1004F00042E0660F771F881F991F4A95D1F708952C
:100500008F929F92AF92BF92CF92DF92EF92FF9223
:100510006B017C010E945B024B015C01C114D104A0
:10052000E104F104B9F00E945B02681979098A09B3
:100530009B09683E73408105910580F321E0C21A52
:10054000D108E108F10888EE880E83E0981EA11C0E
:10055000B11CE4CFFF90EF90DF90CF90BF90AF90B1
:100560009F908F900895EF92FF920F931F93CF93D8
:10057000DF93C82F7B018A0160E086E00E94ED01D5
:1005800060E085E00E94ED018C2F90E00E9439022E
:1005900061E085E00E94ED01E7010E0D1F1DC0170F
:1005A000D10739F0FE01849190E00E943902219632
:1005B000F6CF61E086E0DF91CF911F910F91FF9020
:1005C000EF900C94ED019F92AF92BF92CF92DF9289
:1005D000EF92FF920F931F93CF93DF93EC01FC01F7
:1005E000E490F12C10E000E041E050E00E151F0512
:1005F00090F5FE01E40FF51F84915A01F2E0AF0E71
:10060000B11CFA013196EC0FFD1F9490492D4F77E4
:10061000C42ED12CBE016A0D7B1DA6010E94B3021F
:10062000A5014C0D5D1D97FE13C06A018FEFC81A1E
:10063000D80AFE01E40FF51F649170E06F3F710569
:1006400011F464EF71E090E080E00E948002A60166
:100650000F5F1F4FCBCFDF91CF911F910F91FF9075
:10066000EF90DF90CF90BF90AF909F90089542E0C1
:1006700050E062E171E081E591E00C94E0001F92AE
:100680000F920FB60F9211242F933F934F935F93C6
:100690006F937F938F939F93AF93BF93EF93FF934A
:1006A00081E591E00E945E01FF91EF91BF91AF91D2
:1006B0009F918F917F916F915F914F913F912F917A
:1006C0000F900FBE0F901F9018951F920F920FB6AC
:1006D0000F9211242F938F939F93EF93FF93E091A9
:1006E0006101F09162018081E0916701F091680100
:1006F00082FD1BC0908180916A018F5F8F73209172
:100700006B01821741F0E0916A01F0E0EF5AFE4F71
:10071000958F80936A01FF91EF919F918F912F9117
:100720000F900FBE0F901F9018958081F4CF1F92ED
:100730000F920FB60F9211242F933F938F939F9395
:10074000AF93BF938091490190914A01A0914B01D1
:10075000B0914C013091480123E0230F2D3758F51B
:100760000196A11DB11D20934801809349019093EA
:100770004A01A0934B01B0934C0180914D0190919F
:100780004E01A0914F01B09150010196A11DB11DE4
:1007900080934D0190934E01A0934F01B09350016F
:1007A000BF91AF919F918F913F912F910F900FBE6D
:1007B0000F901F90189526E8230F0296A11DB11DDA
:1007C000D2CFCF93DF93CDB7DEB7CF5FD1090FB6CE
:1007D000F894DEBF0FBECDBF789484B5826084BD2F
:1007E00084B5816084BD85B5826085BD85B5816035
:1007F00085BD80916E00816080936E0010928100B3
:10080000809181008260809381008091810081606D
:10081000809381008091800081608093800080912E
:10082000B10084608093B1008091B00081608093BA
:10083000B00080917A00846080937A0080917A0081
:10084000826080937A0080917A00816080937A0040
:1008500080917A00806880937A001092C100E091C4
:100860006101F091620182E08083E0915D01F0918D
:100870005E011082E0915F01F091600180E1808370
:1008800010926901E0916501F091660186E0808334
:10089000E0916301F0916401808180618083E09147
:1008A0006301F0916401808188608083E09163013D
:1008B000F0916401808180688083E0916301F09110
:1008C000640180818F7D808380E00E94C10081E08F
:1008D0000E94C10082E00E94C10083E00E94C1002A
:1008E00084E00E94C10085E00E94C10086E00E9471
:1008F000C10087E00E94C10060E080E00E94ED013D
:1009000060E081E00E94ED0160E082E00E94ED0184
:1009100060E083E00E94ED0160E084E00E94ED0170
:1009200060E085E00E94ED0160E086E00E94ED015C
:1009300060E087E00E94ED0181E090E000E010E0DF
:1009400080301FB711FF026910E0989490301FB7F4
:1009500011FF0D7610E00BB900E0882F992F08EBFE
:1009600010E082ECA82E80E0B82E95E1C92E91E02F
:10097000D92ECE0101967C01F8019081E92FF0E09B
:100980008491F80124911F928F931F922F931F92AD
:100990009F93DF92CF92FF92EF920E940C06F70195
:1009A00001900020E9F73197AF014E195F09B701B7
:1009B00081E591E00E94E0000E9437030F5F1F4F26
:1009C0000FB6F894DEBF0FBECDBFA016B106A1F6DC
:1009D0000E94370360E083E00E94ED0160E082E066
:1009E0000E94ED0161E084E00E94ED0164E670E0A8
:1009F00080E090E00E94800260E084E00E94ED01CF
:100A000064E670E080E090E00E94800261E084E0B3
:100A10000E94ED0168EC70E080E090E00E948002AE
:100A200061E086E00E94ED0188EB90E00E94E30225
:100A30008BEA90E00E94E30280E890E00E94E302EB
:100A4000ECE7F0E0649170E041E050E086E30E9462
:100A5000B302EDE7F0E0649170E041E050E086E33E
:100A60000E94B30250E040E070E060E08CE20E943F
:100A7000B30260E086E00E94ED01F89480E090E52A
:100A800028EF30E00BB127FF086027FD077F0460E7
:100A90000BB90B7F0BB926FF086026FD077F0460AA
:100AA0000BB90B7F0BB925FF086025FD077F04609C
:100AB0000BB90B7F0BB924FF086024FD077F04608E
:100AC0000BB90B7F0BB923FF086023FD077F046080
:100AD0000BB90B7F0BB922FF086022FD077F046072
:100AE0000BB90B7F0BB921FF086021FD077F046064
:100AF0000BB90B7F0BB920FF086020FD077F046056
:100B00000BB90B7F0BB937FF086037FD077F046017
:100B10000BB90B7F0BB936FF086036FD077F046009
:100B20000BB90B7F0BB935FF086035FD077F0460FB
:100B30000BB90B7F0BB934FF086034FD077F0460ED
:100B40000BB90B7F0BB933FF086033FD077F0460DF
:100B50000BB90B7F0BB932FF086032FD077F0460D1
:100B60000BB90B7F0BB931FF086031FD077F0460C3
:100B70000BB90B7F0BB930FF086030FD077F0460B5
:100B80000BB90B7F0BB9019709F07CCF789400E08B
:100B900010E068EE73E080E090E00E9480020115B2
:100BA0001105B9F30E944A01882399F30E940000BD
:100BB000F0CFE1E5F1E01382128288EE93E0A0E04D
:100BC000B0E084839583A683B78384E091E091832A
:100BD000808385EC90E09587848784EC90E097870C
:100BE000868780EC90E0918B808B81EC90E0938BFA
:100BF000828B82EC90E0958B848B86EC90E0978BD7
:100C0000868B118E128E138E148E0895EE0FFF1F99
:100C10000590F491E02D0994AEE0B0E0E2E1F6E059
:100C20000C94BB080D891E8986E08C831A83098386
:100C30008FEF9FE79E838D83AE01475E5F4F6F8985
:100C4000788DCE0101960E942F062F813885020FE4
:100C5000131FF80110822E96E4E00C94D708ABE045
:100C6000B0E0E5E3F6E00C94AD087C013B018A01BD
:100C7000FC0117821682838181FFC8C1CE010196D3
:100C80005C01F7019381F30193FD859193FF8191BD
:100C90003F01882309F453C1853239F493FD8591CE
:100CA00093FF81913F01853229F4B70190E00E94C2
:100CB0001F08E7CF912C212C312CFFE1F31538F0E0
:100CC0008B3211F190F4803209F1833229F137FC33
:100CD0003CC020ED280F2A3050F536FE20C08AE0B7
:100CE000989E200D1124922E06C08D3291F08033F3
:100CF00071F7689430F8F30193FD859193FF81912A
:100D00003F018111DACF21C0689431F8689432F83C
:100D1000F2CF689433F8EFCF689434F8ECCFEAE080
:100D20002E9E200D1124222E689435F8E4CF8E32A9
:100D300029F436FC04C1689436F8DDCF8C3619F4FA
:100D4000689437F8D8CF8836B1F2982F9F7D9554A4
:100D50009330E0F08336A1F18337C1F1833509F098
:100D600063C02801F2E04F0E511CF801C080D18011
:100D7000692D70E036FC02C06FEF7FEFC6010E9464
:100D800009084C01689437F882010AC00C5F1F4FB4
:100D9000FFE3F98388248394912C6501E89437F864
:100DA00033FE2DC0522C8114910471F5552009F4A5
:100DB00068CFB70180E290E00E941F085A94F6CFF6
:100DC000F801808189830E5F1F4FE4CF2801F2E094
:100DD0004F0E511CF801C080D180692D70E036FCA7
:100DE00002C06FEF7FEFC6010E9414084C01820120
:100DF000D5CFB70180E290E00E941F082A94281402
:100E0000190409F0B0F7CECFF60137FC859137FE13
:100E100081916F01B70190E00E941F0851105A9410
:100E2000F1E08F1A9108BFCF843619F0893609F0A6
:100E300077C0F80137FE6BC0608171818281938138
:100E40000C5F1F4FF32DFF763F2E97FF09C0909543
:100E50008095709561957F4F8F4F9F4F689437F8BD
:100E60002AE030E0A5010E944F08C82ECA188C2C39
:100E7000432C36FE0CC0E89440F8C91440F434FE0C
:100E800005C032FC03C0F32DFE7E4F2E892C44FE9C
:100E900095C0FE01EC0DF11D8081803309F087C003
:100EA000242D297E422E842D8870582E43FC95C017
:100EB00040FE8FC09C2C821418F42C0C922C981895
:100EC00044FE91C0B70180E390E00E941F0842FEFB
:100ED00009C088E790E041FE02C088E590E0B701D4
:100EE0000E941F08C91408F48AC0CA94D12C9FEF2D
:100EF000C91AD90ACA0CDB1CF60182916F01B7012D
:100F000090E00E941F08AC14BD04B1F74FCF608180
:100F10007181072E000C880B990B0E5F1F4F92CF2B
:100F2000D32CE894D4F82AE030E0853739F1232D2A
:100F3000297FD22E8F3601F148F48835A9F0F701C8
:100F4000868197812B96E2E10C94C908803749F09D
:100F50008837A9F7D4FE02C06894D2F820E130E0C7
:100F60000DC06894D4F8F6CF34FE03C0822F86609B
:100F7000D82E20E132E002C028E030E0F801D7FEB0
:100F80000FC060817181828193810C5F1F4FA50129
:100F90000E944F08C82ECA183D2CE89437F867CF36
:100FA0006081718190E080E00E5F1F4FF0CF42FCC6
:100FB00002C0839478CF8394839475CF842D8678F0
:100FC00009F471CFF6CFB70180E290E00E941F08CC
:100FD00083948214C0F3512C73CF522C581882146E
:100FE00008F46ECFF8CF842D867809F47BCF8BE29E
:100FF00041FE80E247FC8DE2B70190E071CFB7017E
:1010000080E390E00E941F089A946CCF8FEF9FEFCF
:1010100099CFFC010590615070400110D8F7809580
:1010200090958E0F9F1F0895FC01615070400190B4
:101030000110D8F7809590958E0F9F1F08950F93FC
:101040001F93CF93DF93182F092FEB018B8181FD25
:1010500009C01FEF0FEF812F902FDF91CF911F91CC
:101060000F91089582FF14C02E813F818C819D8154
:10107000281739073CF4E881F981CF01019699835B
:10108000888310838E819F8101969F838E83E3CF17
:10109000E885F985812F0995892BA1F3DACFFA012B
:1010A000AA27283051F1203181F1E8946F936E7FA7
:1010B0006E5F7F4F8F4F9F4FAF4FB1E03ED0B4E098
:1010C0003CD0670F781F891F9A1FA11D680F791FD9
:1010D0008A1F911DA11D6A0F711D811D911DA11DEA
:1010E00020D009F468943F912AE0269F11243019FA
:1010F000305D3193DEF6CF010895462F4770405D95
:101100004193B3E00FD0C9F7F6CF462F4F70405D43
:101110004A3318F0495D31FD4052419302D0A9F79E
:10112000EACFB4E0A6959795879577956795BA9598
:10113000C9F700976105710508959B01AC010A2E5E
:1011400006945795479537952795BA95C9F7620F35
:10115000731F841F951FA01D08952F923F924F92D9
:101160005F926F927F928F929F92AF92BF92CF9237
:10117000DF92EF92FF920F931F93CF93DF93CDB740
:10118000DEB7CA1BDB0B0FB6F894DEBF0FBECDBFB8
:1011900009942A88398848885F846E847D848C8489
:1011A0009B84AA84B984C884DF80EE80FD800C8192
:1011B0001B81AA81B981CE0FD11D0FB6F894DEBF75
:0C11C0000FBECDBFED010895F894FFCFE5
:1011CC00000000008001E0000D01CD013E011C017A
:1011DC0030010D0A00466C6173683A203078253076
:1011EC003278207C2050524F474D454D3A20307874
:1011FC0025303278207C20496E6469726563743ABC
:08120C00203078253032780013
:00000001FF
